:020000040800F2
:10000000202800206D06000835030008370300088B
:100010003B0300083F030008430300080000000002
:1000200000000000000000000000000001020008C5
:10003000470300080000000079020008B50200082C
:10004000870600088706000887060008870600085C
:10005000870600088706000887060008870600084C
:10006000870600088706000887060008870600083C
:10007000870600088706000887060008870600082C
:10008000870600088706000887060008870600081C
:10009000870600088706000887060008870600080C
:1000A00087060008870600088706000887060008FC
:1000B0008706000887060008872F000887060008C3
:1000C00087060008870600088706000887060008DC
:1000D00087060008A32E0008870600088706000888
:1000E00087060008870600088706000800F002F867
:1000F00000F040F80AA090E8000C82448344AAF182
:100100000107DA4501D100F035F8AFF2090EBAE87F
:100110000F0013F0010F18BFFB1A43F0010318473B
:1001200054A4000074A40000103A24BF78C878C119
:10013000FAD8520724BF30C830C144BF04680C60ED
:10014000704700000023002400250026103A28BF35
:1001500078C1FBD8520728BF30C148BF0B60704739
:100160001FB51FBD10B510BD03B4FFF7FBFF03BCE7
:1001700002F03CFE04F019FE1146FFF7F1FF04F017
:10018000DFFE0448002104F045FF04F0EBFE04F01C
:1001900031FE00009000002080F309887047EFF3E3
:1001A00009807047684680F3098804480078C007D2
:1001B00014BF0220032080F31488704734A5000880
:1001C000DFF818C0EFF305831B0618BF6047EFF395
:1001D0001483DB0708BF604700DF7047BF5000088B
:1001E000DFF818C0EFF305831B0618BF6047EFF375
:1001F0001483DB0708BF604700DF7047995200088F
:10020000EFF30980816911F8021CF1B990E80F1031
:10021000E047EFF3098C8CE80700144B93E80600E5
:1002200091420FD039B12CE9F00FC1F828C00CB4BD
:1002300005F0A8FB0CBC1A60D2F828C0BCE8F00F8F
:100240008CF309886FF0020E704710B5084A1268E7
:10025000914209D8074C54F8214090E80F10A0476C
:10026000EFF3098C8CE80F0010BD0000A8000020FF
:10027000084E0008084E000805F058FA0C4B93E8A9
:100280000600914210D0EFF3098C2CE9F00FC1F871
:1002900028C00CB405F076FB0CBC1A60D2F828C05C
:1002A000BCE8F00F8CF309886FF0020E7047000075
:1002B000A800002005F02EFCE0E7000004F0FEFEA0
:1002C00005F028FCDAE7000000F010F800BF04F0A9
:1002D00002FDFCE710B506221349144800F04BF963
:1002E00006221349114800F035F910BD10B502F08F
:1002F0000DFD02F075FD02F0AFFE02F041FFFFF7C9
:10030000E9FF41F61F41632002F010FE002141F693
:100310001F4002F04EFE02F0EBFF03F056F903F02F
:10032000E5FF04F047F810BD1800002000000108A8
:100330001E000020704700BFFEE700BFFEE700BFC1
:10034000FEE700BFFEE770470CB50020019000906B
:100350006C48006840F480306A49086000BF694812
:10036000006800F4003000900198401C0190009853
:1003700018B90198B0F5A06FF1D16248006800F497
:10038000003010B10120009001E0002000900098A2
:10039000012843D15C48006840F010005A490860C9
:1003A0000846006820F0030008600846006840F036
:1003B0000200086053484068524948600846406857
:1003C00048600846406840F48060486008464068DD
:1003D00020F47C1048600846406840F4E81048600B
:1003E0000846006840F08070086000BF454800681B
:1003F00000F000700028F9D04248406820F0030067
:10040000404948600846406840F00200486000BF2C
:100410003C48406800F00C000828F9D10CBD10B52C
:10042000FFF792FF10BD10B53648006840F001009C
:1004300034490860084640683449084031494860FA
:1004400008460068324908402E490860084600689E
:1004500020F4802008600846406820F4FE004860D0
:100460004FF41F008860FFF7DAFF4FF00060294962
:10047000086010BD10B5002100200022214B5B68F0
:1004800003F00C0121B1042906D0082928D107E086
:10049000214B224C236027E01F4B204C236023E09C
:1004A000184B5B6803F47010164B5B6803F48032E2
:1004B000022303EB904022B9194B4343174C2360AE
:1004C0000DE0104B5B6803F4003323B1144B43433E
:1004D000124C236003E0104B4343104C236003E0B5
:1004E0000D4B0E4C236000BF00BF064B5B68C3F38F
:1004F00003130C4CE15C094B1B68CB40074C236099
:1005000010BD000000100240002002400000FFF873
:10051000FFFFF6FE08ED00E000127A002400002044
:1005200000093D00280000200146088870472DE999
:10053000F04105460E461746002407E036F8141031
:10054000284602F042F9AD1C601C84B2BC42F5DBC7
:10055000BDE8F08130B503460C461546002207E0A1
:100560001846FFF7E1FF24F812009B1C501C82B2D2
:10057000AA42F5DB30BD2DE9F05F80468A4617467A
:10058000B8F1006F02D33748804501D3BDE8F09F32
:1005900001F0D3FFA8F1006B4FEA9B25CBF348098C
:1005A000C9F50074A74200DC3C464DE04FF0006105
:1005B00001EB85208A142C49FFF7CCFF00260BE0C5
:1005C00009EB0600284931F810004FF6FF71884208
:1005D00000D003E0701C86B2A642F1DB00BFA64249
:1005E0001BDA4FF0006101EB852001F0EBFF0026E4
:1005F00008E03AF8160006EB09011B4A22F8110040
:10060000701C86B2A642F4DB4FF0006101EB85203E
:100610008A141549FFF78BFF04E0224651464046F5
:10062000FFF785FFA74200D10FE06D1C4FF00009D6
:100630000AEB440AA044381B87B2B7F5007F02DDFD
:100640004FF4007400E03C46B0E700BF01F081FFCA
:1006500000BF9BE713B50446012201A92046FFF71E
:100660008AFF1CBD00000208C8000020094880471E
:1006700009480047FEE7FEE7FEE7FEE7FEE7FEE784
:10068000FEE7FEE7FEE7FEE704480549054A064B9C
:100690007047000027040008ED0000082022002019
:1006A000202800202024002020240020314901435C
:1006B000314A1160704770B5002100230F22C478C1
:1006C00004B32D4C246804F4E064C4F5E064210A0A
:1006D000C1F10403CA40447804FA03F18478144059
:1006E00021430901254C0678A155047804F01F0523
:1006F0000124AC4005786D11AD0005F1E025C5F889
:10070000004109E0047804F01F050124AC401C4DB1
:100710000678761145F8264070BD1A4A0A40024311
:10072000154B1B1F1A60704739B1134A121D12680E
:100730000243114B1B1D1A6006E00F4A121D12687E
:1007400082430D4B1B1D1A607047042808D14FF0DF
:10075000E021096941F004014FF0E022116107E056
:100760004FF0E021096921F004014FF0E02211610E
:10077000704700000000FA050CED00E000E400E026
:1007800080E100E080FFFF1F10B50446FA48844274
:1007900008D10121401500F055FD0021601500F041
:1007A00051FD17E0F548844208D10121001500F001
:1007B00049FD0021201500F045FD0BE0F048844282
:1007C00008D10121C80300F03DFD00214FF4004095
:1007D00000F038FD10BD30B50246002000235068FF
:1007E000E84C20400D790C6844EA05242043506011
:1007F0009068E54C2040D1E902542C434D7944EAFD
:10080000450420439060D06A20F470000C7C641E84
:10081000E4B2234340EA0350D06230BD00210160BE
:10082000017141718160C16001210174704721B182
:10083000826842F00102826003E0826822F00102D5
:100840008260704721B1826842F48072826003E066
:10085000826822F480728260704710B50023CBB2A8
:100860001AB144681C43446002E044689C434460FD
:1008700010BD816841F00801816070470146002089
:100880008A6802F008020AB1012000E000207047E7
:10089000816841F0040181607047014600208A6848
:1008A00002F004020AB1012000E00020704721B1EB
:1008B000826842F4A002826003E0826822F4A0020F
:1008C00082607047014600208A6802F480020AB103
:1008D000012000E00020704710B50A4600210023E7
:1008E000416821F46041531E41EA4331416010BD2B
:1008F00021B1426842F40062426003E0426822F49F
:10090000006242607047F0B504460D4600200021A9
:10091000092D11DDE068A5F10A0606EB460707265A
:1009200006FA07F18843A5F10A0606EB460603FA24
:1009300006F10843E0600CE0206905EB4507072657
:1009400006FA07F1884305EB450603FA06F108436A
:100950002061072A0FDA606B561E06EB86071F26FA
:1009600006FA07F18843561E06EB860605FA06F1DD
:100970000843606322E00D2A0FDA206BD61F06EBD6
:1009800086071F2606FA07F18843D61F06EB860660
:1009900005FA06F10843206310E0E06AA2F10D06B3
:1009A00006EB86071F2606FA07F18843A2F10D061B
:1009B00006EB860605FA06F10843E062F0BD21B1B8
:1009C000826842F48012826003E0826822F480121E
:1009D000826070470146C86C80B2704766484C30F0
:1009E0000068704721B1426842F48062426003E0CF
:1009F000426822F480624260704721B1426842F44A
:100A00008052426003E0426822F4805242607047A4
:100A10000A460021816821F4E0411143816070475A
:100A200021B1826842F40042826003E0826822F4CD
:100A300000428260704721B1826842F402128260F3
:100A400003E0826822F402128260704701460020AF
:100A50008A6802F400120AB1012000E00020704709
:100A6000F0B504461546002000220026092911DDB4
:100A7000E068A1F10A0707EB470C072707FA0CF219
:100A80009043A1F10A0707EB470703FA07F2104367
:100A9000E0600CE0206901EB410C072707FA0CF23B
:100AA000904301EB410703FA07F210432061A06B6A
:100AB000C0F30156EF1C06F1010CA7EB0C0707EB86
:100AC000870C1F2707FA0CF29043EF1C06F1010C6C
:100AD000A7EB0C0707EB870701FA07F21043A063A7
:100AE000F0BD10B50A4600210023816B21F44011AE
:100AF000531E41EA0351816310BD08B500230093E2
:100B00000090009B0B440093009B1A6008BD08B541
:100B1000024600200090009201F12800009B18443A
:100B200000900098006880B208BD0A460021416824
:100B3000164B194011434160704741628262704711
:100B40000A460021416821F01F01114341607047AE
:100B500040B109490831096841F40001064A0832E8
:100B6000116007E004490831096821F40001024AD4
:100B70000832116070470000002401400028014045
:100B8000003C0140FFFEF0FFFDF7F1FFFFFD3FFFDE
:100B90000246002013680B400BB1012000E000204A
:100BA0007047CA430260704770B5024600200023B8
:100BB00000240B125568CEB205EA060415681D40E4
:100BC00015B10CB1012000E0002070BD00220A1216
:100BD000D34303607047000010B50446CC488442FC
:100BE00008D10121042000F02DFB0021042000F099
:100BF00029FB46E0C748844208D10121082000F0C3
:100C000021FB0021082000F01DFB3AE0C24884428D
:100C100008D10121102000F015FB0021102000F068
:100C200011FB2EE0BD48844208D10121202000F0B4
:100C300009FB0021202000F005FB22E0B848844297
:100C400008D10121402000F0FDFA0021402000F0F1
:100C5000F9FA16E0B348844208D10121802000F05F
:100C6000F1FA0021802000F0EDFA0AE0AE4884425B
:100C700007D10121801500F0E5FA0021A01500F050
:100C8000E1FA10BD10B50121084600F0DBFA0021A1
:100C9000012000F0D7FA10BD2DE9F04102460025F1
:100CA0000026002000230024002791F803C00CF048
:100CB0000F0591F803C00CF0100CBCF1000F03D02D
:100CC00091F802C04CEA050591F800C0BCF1000F94
:100CD00031D0146800202BE04FF0010C0CFA00F327
:100CE000B1F800C00CEA03069E4220D183004FF009
:100CF0000F0C0CFA03F7BC4305FA03FC4CEA04049E
:100D000091F803C0BCF1280F06D14FF0010C0CFA8A
:100D100000FCC2F814C00AE091F803C0BCF1480F0F
:100D200005D14FF0010C0CFA00FCC2F810C0401CB9
:100D30000828D1D31460B1F800C0BCF1FF0F34DD36
:100D4000546800202EE000F1080C4FF0010808FA6A
:100D50000CF3B1F800C00CEA03069E4221D18300D7
:100D60004FF00F0C0CFA03F7BC4305FA03FC4CEAF6
:100D7000040491F803C0BCF1280F05D100F1080C60
:100D800008FA0CF8C2F8148091F803C0BCF1480FBF
:100D900007D100F1080C4FF0010808FA0CF8C2F86E
:100DA0001080401C0828CED35460BDE8F0814FF677
:100DB000FF710180022181700421C17070470246D9
:100DC000002093680B400BB1012000E00020704729
:100DD0000146886880B2704702460020D3680B4005
:100DE0000BB1012000E0002070470146C86880B2C6
:100DF000704701617047416170470AB1016100E0CD
:100E000041617047C16070474FF480320A4382618C
:100E10008161826182698269704702460020434B8A
:100E200018684FF68073184040EA021008433F4BA1
:100E3000186070473E49C8617047F0B50A46002304
:100E400000240021002500F00046B6F1004F02D139
:100E5000364EF16901E0354E7168C0F3034583B247
:100E600000F44016B6F5401F08D121F070612F4EF6
:100E7000766826F070662D4F7E6012E000F48016D2
:100E8000B6F5801F06D1032606FA05F4A14341F00A
:100E9000706106E0460D360103FA06F6B14341F0F3
:100EA000706122B1460D360103FA06F6314300F0B7
:100EB0000046B6F1004F02D11C4EF16101E01B4E1D
:100EC0007160F0BD30B500228B071C0F0F2303FAB1
:100ED00004F2164B08338C1053F824309343134C10
:100EE00008348D1044F8253023468C1053F82430F4
:100EF0008C07240F00FA04F423430C4C08348D10A3
:100F000044F8253030BD0A49DC31086070470000E4
:100F100000080140000C0140001001400014014095
:100F200000180140001C0140002001400000014069
:100F300000002042DF48006840F00100DD49086001
:100F400008464068DC490840DA49486008460068BD
:100F5000DA490840D74908600846006820F4802034
:100F600008600846406820F4FE0048604FF41F0007
:100F700088607047CF49096821F48031CD4A1160FB
:100F80001146096821F480211160B0F5803F03D03B
:100F9000B0F5802F0ED106E0C649096841F48031D2
:100FA000C44A116007E0C349096841F4A021C14A5D
:100FB000116000E000BF00BF704710B5014600227D
:100FC000002300204A11012A02D1BA4C236806E00E
:100FD000022A02D1B74C236A01E0B64C636A01F0E1
:100FE0001F02012494401C400CB1012000E00020AD
:100FF00010BD38B5002000900024002500BF31202E
:10100000FFF7DBFF05460098401C00900098B0F504
:10101000A06F01D0002DF2D03120FFF7CEFF08B134
:10102000012400E00024204638BD01460020A14AEA
:10103000106820F0F80040EAC10010607047A04935
:1010400008607047024600209A4B586820F47C10D4
:1010500042EA01031843974B586070479849086665
:10106000704701460020934A506820F0030008436F
:10107000506070478F48406800F00C007047014690
:1010800000208C4A506820F0F00008435060704700
:1010900001460020874A506820F4E0600843506011
:1010A000704701460020834A506820F4605040EAAF
:1010B000C1005060704729B17E4A527A02437D4B8D
:1010C0005A7204E07B4A527A82437A4B5A727047D2
:1010D0007B49D8310860704701460020754A506846
:1010E00020F440400843506070470021714A20328C
:1010F0001170704A82F82010012802D004280AD109
:1011000004E001216B4A2032117005E00521694A93
:101110002032117000E000BF00BF704769490860CD
:1011200070476449096A0143624A11627047654920
:1011300044390860704730B50021002200240023A4
:101140005C4D6D6805F00C0121B1042905D008291A
:1011500023D105E05C4D056022E05B4D05601FE09A
:10116000544D6D6805F47012524D6D6805F480346D
:10117000022505EB92421CB9544D554305600BE026
:101180004C4D6D6805F400351DB1504D554305605B
:1011900002E04D4D5543056002E04B4D056000BF38
:1011A00000BF444D6D6805F0F0010909484D6B5CC6
:1011B0000568DD4045603F4D6D6805F4E061090A52
:1011C000434D6B5C4568DD4085603A4D6D6805F4C4
:1011D0006051C90A3E4D6B5C4568DD40C560354DC8
:1011E0006D6805F44041890B3A4D6B5CC568B5FBF1
:1011F000F3F5056130BD29B12E4A526902432D4BEA
:101200005A6104E02B4A526982432A4B5A61704763
:1012100029B1284A92690243264B9A6104E0254A83
:1012200092698243234B9A61704729B1214AD2695E
:101230000243204BDA6104E01E4AD26982431D4B0F
:10124000DA61704729B11B4AD2680243194BDA6050
:1012500004E0184AD2688243164BDA60704729B11D
:10126000144A12690243134B1A6104E0114A1269CD
:101270008243104B1A617047124940390860704729
:101280000F49C86470470B49C87170470948406AE4
:1012900040F0807007494862704701460020054AC7
:1012A00092680A400AB1012000E00020704701491D
:1012B00088727047001002400000FFF8FFFFF6FE42
:1012C000000042428004424200127A0000093D00C0
:1012D000380000204800002010B50446FE48844233
:1012E00008D10121C014FFF7ADFF0021E014FFF782
:1012F000A9FFC4E0B4F1804F08D101210846FFF7EF
:10130000AEFF00210120FFF7AAFFB8E0F3488442B6
:1013100008D101210220FFF7A2FF00210220FFF7E0
:101320009EFFACE0EE48844208D101210420FFF783
:1013300096FF00210420FFF792FFA0E0E9488442D5
:1013400008D101210820FFF78AFF00210820FFF7BC
:1013500086FF94E0E448844208D101211020FFF781
:101360007EFF00211020FFF77AFF88E0DF488442EB
:1013700008D101212020FFF772FF00212020FFF774
:101380006EFF7CE0DA48844208D101214014FFF767
:1013900059FF00216014FFF755FF70E0D5488442E3
:1013A00009D10121C804FFF74DFF00214FF40020AF
:1013B000FFF748FF63E0D048844209D101210805C6
:1013C000FFF740FF00214FF48010FFF73BFF56E08E
:1013D000CA48844209D101214805FFF733FF0021A3
:1013E0004FF40010FFF72EFF49E0C548844208D1B2
:1013F00001214020FFF733FF00214020FFF72FFF9E
:101400003DE0C048844208D101218020FFF727FF3A
:1014100000218020FFF723FF31E0BB48844208D140
:1014200001218015FFF71BFF0021A015FFF717FF13
:1014300025E0B648844209D101210804FFF702FFE4
:1014400000214FF48030FFF7FDFE18E0B0488442E1
:1014500009D101214804FFF7F5FE00214FF40030C7
:10146000FFF7F0FE0BE0AB48844208D1012188046D
:10147000FFF7E8FE00214FF48020FFF7E3FE10BDE8
:1014800000220288944B98420ED0994B98420BD080
:10149000B0F1804F08D0914B984205D0904B9842C4
:1014A00002D0904B984204D14FF68F731A404B886C
:1014B0001A438D4B984207D08C4B984204D04FF67C
:1014C000FF431A40CB881A4302808B8883850B88A0
:1014D0000385814B98420BD0854B984208D08B4BAB
:1014E000984205D08A4B984202D08A4B984201D14B
:1014F0000B7A038601238382704770B50024002293
:101500000023058C4FF6FE7635400584028C8388D7
:10151000048B4FF68F752C40B51E2C400D882C4344
:10152000751E2A400D892A434D882A436A4DA842D8
:101530000BD06F4DA84208D0744DA84205D0744D11
:10154000A84202D0734DA84213D14FF6F7752A4036
:101550004D892A434FF6FB752A408D882A434FF662
:10156000FF652B404FF6FF552B408D892B43CD89CE
:101570002B4383800483CD888586028470BD70B53B
:10158000002400220023058C4FF6EF7635400584B9
:10159000028C8388048B48F6FF752C404FF6FF457C
:1015A0002C400D884FF6FF7606EA05252C434FF6B2
:1015B000DF752A400D8906EA05152A434D8806EA9B
:1015C00005152A43444DA84202D0494DA8421DD1D9
:1015D0004FF67F752A404D894FF6FF7606EA0515CE
:1015E0002A434FF6BF752A408D8806EA05152A431F
:1015F0004FF6FF352B404FF2FF752B408D8906EAE1
:1016000085052B43CD8906EA85052B43838004831A
:10161000CD880587028470BD70B5002400220023A8
:10162000058C4FF6FF6635400584028C8388848BD9
:101630004FF68F752C404FF6FC752C400D882C43CF
:101640004FF6FF552A400D894FF6FF7606EA05252D
:101650002A434D8806EA05252A431F4DA84202D099
:10166000234DA8421DD14FF2FF752A404D894FF6F8
:10167000FF7606EA05252A434FF6FF352A408D8876
:1016800006EA05252A434EF6FF752B404DF6FF75F9
:101690002B408D8906EA05152B43CD8906EA0515F1
:1016A0002B4383808483CD888587028470BD70B589
:1016B000002200230024058C4EF6FF763540058479
:1016C000038C8488828B48F6FF752A404FF6FF45CD
:1016D0002A400D8820E00000002C0140000400405A
:1016E00000080040000C00400010004000140040C2
:1016F00000340140004C01400050014000540140C2
:1017000000180040001C0040002000400040014044
:1017100000440140004801404FF6FF7606EA0525E7
:101720002A434DF6FF752B400D8906EA05352B43FC
:101730004D8806EA05352B43FA4DA84202D0FA4DF2
:10174000A84208D14BF6FF752C408D894FF6FF76E5
:1017500006EA85152C4384808283CD88A0F840500A
:10176000038470BD828B4FF2FF331A408283828BD9
:101770004FF6FF7303EA01231A4382837047F0B5E3
:101780000C461546002200210026078C4EF6FF7CF1
:1017900007EA0C070784828B018C4FF6FF7707EA74
:1017A000043640F6FF473A404FF6FF7707EA052731
:1017B0003A434FF6FF7707EA03373A43D94FB84227
:1017C0000ED0D94FB8420BD0B0F1804F08D0D74FD0
:1017D000B84205D0D64FB84202D0D64FB84206D153
:1017E0004DF6FF77394046F48057394305E047F618
:1017F000FF57394044F48057394382830184F0BD58
:10180000828B4FF6F3731A408283828B0A43828362
:101810007047F0B50C461546002200210026078CC3
:101820004FF6FF6C07EA0C070784828B018C4FF69A
:10183000FF7707EA04264FF60C773A404FF6FF771A
:1018400007EA03172F433A43B64FB8420ED0B64FBC
:10185000B8420BD0B0F1804F08D0B44FB84205D099
:10186000B34FB84202D0B34FB84206D14FF6FF573C
:10187000394046F48077394305E04FF2FF5739404D
:1018800044F48077394382830184F0BD028B4FF2A8
:10189000FF331A400283028B4FF6FF7303EA0123E2
:1018A0001A4302837047F0B50C461546002200210A
:1018B0000026078C4FF6EF7C07EA0C070784028BA3
:1018C000018C4FF6FF7707EA041640F6FF473A40CF
:1018D0004FF6FF7707EA03373A434FF6FF7707EAF9
:1018E00005273A438F4FB8420ED08F4FB8420BD0E6
:1018F000B0F1804F08D08D4FB84205D08C4FB84220
:1019000002D08C4FB84206D14FF6DF77394046F00F
:101910001007394305E04FF65F77394044F0100770
:10192000394302830184F0BD028B4FF6F3731A40F2
:101930000283028B0A4302837047F0B50C461546BA
:1019400000220021068C4FF6FE773E400684028B73
:10195000018C4FF60C7632407E1C06EA03162E43AD
:101960003243704EB0420ED06F4EB0420BD0B0F149
:10197000804F08D06D4EB04205D06D4EB04202D0BF
:101980006C4EB04206D14FF6FD76314044F0010670
:10199000314305E04FF6F576314044F0010631431E
:1019A00002830184F0BD70B505460C465D48854252
:1019B0000ED05D4885420BD0B5F1804F08D05B4812
:1019C000854205D05A48854202D05A48854200D106
:1019D00000E000BF208850B92389A288618828468A
:1019E000FFF7ABFFE1882846FFF79EFF25E0208840
:1019F00004280AD12389A28861882846FFF753FF6B
:101A0000E1882846FFF742FF17E0208808280AD11E
:101A10002389A28861882846FFF7FBFEE1882846D3
:101A2000FFF7EEFE09E02389A28861882846FFF7C8
:101A3000A6FEE1882846FFF795FE70BD2DE9F0412E
:101A400005460C4600260127608808B9022600E0FA
:101A50000026A088012801D1022700E00127208864
:101A6000A0B92389A28861882846FFF766FFE1882C
:101A70002846FFF759FF23893A4631462846FFF7A3
:101A800012FFE1882846FFF701FF13E02389A288AF
:101A900061882846FFF707FFE1882846FFF7F6FE32
:101AA00023893A4631462846FFF747FFE188284612
:101AB000FFF73AFFBDE8F0810A884B881A438B880C
:101AC0001A43CB881A430B891A434B891A438B89D3
:101AD0001A43A0F8442070474FF6FF71818000211F
:101AE0000180C180418001727047002101804180E6
:101AF0008180C180018141818181C1817047002144
:101B000001804180012181800021C18001817047D5
:101B10000021018041808180C180018141818181DA
:101B200070470000002C01400034014000040040D8
:101B300000080040000C004021B1028842F0010280
:101B4000028004E002884FF6FE731A40028070475C
:101B500031B1B0F8442042F40042A0F8442005E03E
:101B6000B0F84420C2F30E02A0F8442070471AB126
:101B700083890B43838102E083898B438381704790
:101B80008182704741EA0203A0F8483070471AB1D9
:101B900083890B43838102E083898B438381704770
:101BA00001894FF6F8721140018170470A46002101
:101BB00001894FF68F73194011430181704730B589
:101BC00004460D4629462046FFF7F0FF208940F0E5
:101BD0000700208130BD2DE9F04104460D46164630
:101BE0001F46602D06D13B46012231462046FFF7B5
:101BF0005AFE05E03B46012231462046FFF79DFE96
:101C000029462046FFF7D2FF208940F007002081B7
:101C1000BDE8F08130B50C4600210189C9B24FF60C
:101C2000FF7505EA0325154325432943018130BD8E
:101C30002DE9F04105460E461746984600244346D6
:101C40003A4631462846FFF7E5FF2C894FF6F870F3
:101C5000044044F007044FF68F70044044F07004D1
:101C60002C81BDE8F081F0B504460D4616461F46AE
:101C70003B46324629462046FFF7CCFF208940F4F8
:101C800080402081F0BD0185828270470A46002194
:101C900001884FF68F731940114301807047F0B5EA
:101CA0000C4615461E460021002200230189028BA6
:101CB000038C4FF6F877394021434FF6FC473A4002
:101CC00040F201173A434FF6DD773B404FF6FF777E
:101CD00007EA06172F433B43018102830384F0BDCB
:101CE0000A460021018B4FF68F731940114301837F
:101CF00070470A460021018B48F6FF7319404FF6E2
:101D0000FF7303EA02231943018370470A46002147
:101D1000818B4FF68F7319401143818370470A46B8
:101D20000021818B48F6FF7319404FF6FF7303EAD9
:101D3000022319438183704721B1028842F0800257
:101D4000028004E002884FF67F731A4002807047D9
:101D500021B1828842F00402828004E082884FF63A
:101D6000FB731A408280704721B1828842F00802DA
:101D7000828004E082884FF6F7731A4082807047B1
:101D800021B1828842F00102828004E082884FF60D
:101D9000FE731A40828070470A460021018B4FF67D
:101DA000F77319401143018370470A460021018BE4
:101DB0004FF2FF7319404FF6FF7303EA02231943F2
:101DC000018370470A460021818B4FF6F773194053
:101DD0001143818370470A460021818B4FF2FF73C4
:101DE00019404FF6FF7303EA0223194381837047BA
:101DF0000A460021018B4FF6FB7319401143018302
:101E000070470A460021018B4FF6FF3319404FF609
:101E1000FF7303EA02231943018370470A46002136
:101E2000818B4FF6FB7319401143818370470A463B
:101E30000021818B4FF6FF3319404FF6FF7303EA01
:101E400002231943818370470A460021018B4FF614
:101E50007F7319401143018370470A460021018BAB
:101E6000C1F30E014FF6FF7303EA02231943018306
:101E700070470A460021818B4FF67F73194011434A
:101E8000818370470A460021818BC1F30E014FF612
:101E9000FF7303EA02231943818370470A46002136
:101EA000018C4FF6FD7319401143018470470A46B7
:101EB0000021018C4FF6F7731940114301847047DC
:101EC0000A460021018C4FF6DF7319404FF6FF736D
:101ED00003EA02131943018470470A460021018C6A
:101EE0004FF67F7319404FF6FF7303EA021319434D
:101EF000018470470A460021018C4FF6FF531940B8
:101F00004FF6FF7303EA02231943018470470A4620
:101F10000021018C4FF2FF7319404FF6FF7303EA63
:101F200002231943018470470A460021018C4DF6B3
:101F3000FF7319404FF6FF7303EA0233194301841C
:101F4000704730B5002301248C40A3B2048C9C431D
:101F50000484048C02FA01F5ADB22C43048430BD34
:101F600030B5002304248C40A3B2048C9C43048429
:101F7000048C02FA01F5ADB22C43048430BD70B577
:101F80000346002000241846183001258D40ACB2CD
:101F90001D8CA5431D8409B1082909D100EB6100FE
:101FA000056825F0700505600568154305600EE0BD
:101FB0000D1FC5F34E052844056825F4E04505606E
:101FC00005684FF6FF7606EA02263543056070BDC8
:101FD00021B1028842F00202028004E002884FF63A
:101FE000FD731A400280704721B1028842F004025A
:101FF000028004E002884FF6FB731A4002807047AB
:1020000021B1828842F08002828004E082884FF60B
:102010007F731A408280704702884FF6F7731A4028
:10202000028002880A430280704782884FF68F73CD
:102030001A40828082880A438280704702894FF664
:10204000F8731A40028102890A43028170470289AB
:102050004FF67F731A40028102890A43028170475A
:1020600081847047818570478186704701877047FA
:1020700081877047A0F84010704702884FF6FF43F1
:102080001A40028002880A43028070470146888E07
:1020900070470146088F70470146888F7047014698
:1020A000B1F8400070470146888C70470146088DA2
:1020B000704702460020138A0B400BB1012000E05C
:1020C00000207047CA430282704730B502460020A4
:1020D00000230024158A05EA0103958905EA010415
:1020E00013B10CB1012000E0002030BDCA430282D0
:1020F0007047000010B50446FB48844209D1012115
:102100008803FFF79FF800214FF48040FFF79AF80B
:1021100032E0F648844209D101214804FFF79FF8D4
:1021200000214FF40030FFF79AF825E0F048844290
:1021300009D101218804FFF792F800214FF4802093
:10214000FFF78DF818E0EB48844209D10121C8045B
:10215000FFF785F800214FF40020FFF780F80BE02F
:10216000E548844208D101210805FFF778F80021ED
:102170004FF48010FFF773F810BD2DE9F04786B0DB
:1021800005460E460024A24600BFA1460027B0899E
:1021900000B100BF2F462C8A4CF6FF700440F08837
:1021A00004432C82AC894EF6F3100440B088318988
:1021B0000843718908430443AC81AC8A4FF6FF4061
:1021C0000440B0890443AC8201A8FEF7B4FFC648BE
:1021D000874202D1DDF810A001E0DDF80CA0A8894B
:1021E00000F4004040B10AEBCA0000EB0A1031686D
:1021F0004900B0FBF1F807E00AEBCA0000EB0A1057
:1022000031688900B0FBF1F86420B8FBF0F00401FC
:102210002009642101FB1089A88900F4004040B125
:10222000322000EBC900B0FBF1F000F007000443DE
:1022300008E0322000EB09106421B0FBF1F000F05F
:102240000F0004432C8106B0BDE8F0874FF416510F
:10225000016000218180C18001810C214181002128
:102260008181704710B502460020108A4FF2FF03AB
:1022700018400B884C8823438C882343CC88234305
:102280001843108210BD0021018041808180C180EF
:10229000704721B1828942F40052828104E0828930
:1022A0004DF6FF731A4082817047F0B50346002453
:1022B00000260025002040F66A17B94200D100BF71
:1022C0001846C1F3421401F01F06012707FA06F56C
:1022D000012C01D10C3004E0022C01D1103000E0BF
:1022E00014301AB107682F43076002E00768AF4354
:1022F0000760F0BD1AB1838A0B43838202E0838AB0
:102300008B4383827047028A4FF6F0731A40028231
:10231000028A0A430282704782894FF2FF731A4091
:10232000828182890A438281704721B1828942F089
:102330000202828104E082894FF6FD731A40828195
:102340007047028A4FF6DF731A400282028A0A43FC
:102350000282704721B1028A42F48042028204E084
:10236000028A4BF6FF731A4002827047C1F30802DB
:102370008280704701468888C0F3080070478189D1
:1023800041F0010181817047028BD2B20283028B3E
:1023900042EA012202837047028B02F47F420283E9
:1023A000028B0A430283704721B1828A42F02002E5
:1023B000828204E0828A4FF6DF731A40828270477D
:1023C00021B1828A42F01002828204E0828A4FF6B2
:1023D000EF731A408282704721B1828A42F008026C
:1023E000828204E0828A4FF6F7731A408282704735
:1023F00021B1828942F40042828103E08289C2F3E2
:102400000E028281704721B1828A42F40062828288
:1024100004E0828A4FF2FF731A4082827047828AF8
:102420004FF6FB731A408282828A0A438282704787
:1024300021B1828A42F00202828204E0828A4FF64F
:10244000FD731A408282704702460020B1F5007F7A
:1024500000D100BF13880B400BB1012000E0002029
:10246000704701F40072B2F5007F00D100BFCA438B
:102470000280704770B5024600240023002500202A
:1024800040F66A16B14200D100BFC1F3421501F017
:102490001F03012606FA03F3012D02D1968933406A
:1024A00006E0022D02D1168A334001E0968A3340BD
:1024B0000C12012606FA04F41688344013B10CB14C
:1024C000012000E0002070BD10B50022002340F67E
:1024D0006A14A14200D100BF0A1201249440A3B2A1
:1024E000DC43048010BD000000380140004400407F
:1024F00000480040004C00400050004001460020D1
:10250000FE4A106800F03800084310607047FB492D
:10251000096821F00801F94A116011460968014370
:1025200011607047F549096821F01001F34A116004
:1025300011460968014311607047F148EF4948604E
:10254000F04848607047EE48EC494860ED48486004
:102550007047EA48006940F08000E8490861704728
:10256000E648006940F08000E449086170470420B3
:10257000E249C96801F0010109B101200EE0DF491B
:10258000C96801F0040109B1022007E0DB49C9680C
:1025900001F0100109B1032000E00420704700B5EC
:1025A00002460423FFF7E3FF034603E0FFF7DFFFE4
:1025B0000346521E012B01D1002AF7D102B905238F
:1025C000184600BD30B5044604254FF43020FFF70F
:1025D000E6FF0546042D17D1C848006940F0020007
:1025E000C649086108464461006940F0400008613E
:1025F0004FF43020FFF7D3FF0546C048006941F68D
:10260000FD710840BD490861284630BD10B504245D
:102610004FF43020FFF7C3FF0446042C16D1B7480F
:10262000006940F00400B54908610846006940F0BF
:10263000400008614FF43020FFF7B1FF0446AF4877
:10264000006941F6FB710840AC490861204610BDA5
:1026500000B502460423FFF78AFF034603E0FFF7B5
:1026600086FF0346521E012B01D1002AF7D102B981
:102670000523184600BD10B504244FF43020FFF7A1
:10268000E7FF0446042C16D19C48006940F0040082
:102690009A4908610846006940F0400008614FF41B
:1026A0003020FFF7D5FF04469448006941F6FB71DE
:1026B000084092490861204610BD00208F49C96931
:1026C00001F0020109B1012000E00020704730B59F
:1026D000A5250424FFF7F1FF00B100254FF43020B9
:1026E000FFF75DFF0446042C3AD185488349886092
:1026F000844888600846006940F020000861084668
:10270000006940F0400008614FF43020FFF747FFB8
:102710000446042C1BD17948006941F6DF7108405A
:10272000764908610846006940F010000861764863
:102730000580E002FFF733FF0446052C10D06F48F8
:10274000006941F6EF7108406C49086108E0052C0A
:1027500006D06A48006941F6EF7108406749086190
:10276000204630BD78B506460C4604250020009072
:10277000E802FFF714FF0546042D24D15F480069E5
:1027800040F001005D4908613480E802FFF707FF6F
:102790000546042D10D1B01C0090200C0099088033
:1027A000E802FFF7FCFE05465448006941F6FE7159
:1027B00008405249086106E05048006941F6FE7140
:1027C00008404E490861284678BD70B504460D465C
:1027D0000426F002FFF7E3FE0646042E11D1474817
:1027E000006940F00100454908612580F002FFF7CB
:1027F000D6FE06464148006941F6FE7108403F4951
:102800000861304670BD70B505460E460424E002EE
:10281000FFF7C5FE0446042C17D1394837498860B4
:10282000384888600846006940F0100008612E8032
:10283000E002FFF7B4FE0446052C06D02F480069DD
:1028400041F6EF7108402D490861204670BD2DE921
:10285000F04304464FF6FF763746B046B1460425AE
:10286000E443E6B2C4F30727C4F307484FEA146908
:10287000E802FFF794FE0546042D49D120481F4980
:102880008860204888600846006940F010000861B0
:10289000FF2E06D01C4808300680E802FFF77FFEB6
:1028A0000546042D08D1FF2F06D017480A300780AF
:1028B000E802FFF774FE0546042D0AD1B8F1FF0FB8
:1028C00007D011480C30A0F80080E802FFF767FE3F
:1028D0000546042D0AD1B9F1FF0F07D00A480E3082
:1028E000A0F80090E802FFF75AFE0546052D0FD02C
:1028F0000248006941F6EF71084007E000200240FD
:1029000023016745AB89EFCD00F8FF1F66490861D9
:102910002846BDE8F08330B5054604244FF4302046
:10292000FFF73DFE0446042C41D160485E498860B3
:102930005F4888600846006940F02000086108464A
:10294000006940F0400008614FF43020FFF727FE97
:102950000446042C22D15448006941F6DF71084036
:10296000514908610846006940F0100008611DB136
:1029700000205049088002E0A5204E4908804FF40D
:102980003020FFF70CFE0446052C10D046480069A5
:1029900041F6EF7108404449086108E0052C06D073
:1029A0004148006941F6DF7108403F49086120460F
:1029B00030BDF0B505460E46174604243B483A495B
:1029C00088603B488860E002FFF7E9FD0446042C7C
:1029D00019D13548006940F010003349086147F0CB
:1029E000F800304328433349891C0880E002FFF790
:1029F000D6FD0446052C06D02B48006941F6EF7140
:102A00000840294908612046F0BD2748C069800870
:102A100070472548006A704700202349096801F083
:102A2000200109B1012000E00020704729B11E4AB1
:102A3000126902431C4B1A6104E01B4A126982436B
:102A4000194B1A61704701460020012908D1164A26
:102A5000D26902F001020AB1012008E0002006E07C
:102A6000114AD2680A400AB1012000E000207047F4
:102A70000D49C860704704200B49C96801F0010185
:102A800009B101200EE00849C96801F0040109B14B
:102A9000022007E00449C96801F0100109B10320D0
:102AA00000E0042070470000002002402301674539
:102AB000AB89EFCD00F8FF1F01684FF6FE721140A1
:102AC00001600021016041608160C1608D498842E0
:102AD00008D18C490839496841F00F01894A083A00
:102AE00051608AE087491431884208D18549083904
:102AF000496841F0F001834A083A51607DE081491C
:102B00002831884208D17F490839496841F4706109
:102B10007C4A083A516070E07A493C31884208D1D9
:102B200078490839496841F47041764A083A516059
:102B300063E074495031884208D1724908394968C4
:102B400041F470216F4A083A516056E06D49643192
:102B5000884208D16B490839496841F47001694AD3
:102B6000083A516049E067497831884208D165499F
:102B70000839496841F07061624A083A51603CE0A6
:102B80006149884206D1011F096841F00F01021F07
:102B9000116032E05C491431884208D15A49091F5A
:102BA000096841F0F001584A121F116025E05649AA
:102BB0002831884208D15449091F096841F47061DD
:102BC000514A121F116018E04F493C31884208D128
:102BD0004D49091F096841F470414B4A121F1160A9
:102BE0000BE049495031884207D14749091F09681C
:102BF00041F47021444A121F1160704710B5002241
:102C0000026847F6F0739A430C6A8B6823430C6999
:102C100023434C6923438C692343CC6923434C6A87
:102C200023438C6A23431A430260CB6843600B68DA
:102C300083604B68C36010BD00210160416081600A
:102C4000C160016141618161C16101624162816272
:102C5000704721B1026842F00102026004E002689C
:102C60004FF6FE731A40026070471AB103680B43B7
:102C7000036002E003688B43036070474160704764
:102C80000146486880B2704701460020002201F0EA
:102C900080531BB11C4B083B1A6802E0194B083BE0
:102CA0001A6802EA01030BB1012000E0002070471E
:102CB00000F0805119B11449091F086002E0114960
:102CC00008394860704701460020002201F0805317
:102CD0001BB10D4B083B1A6802E00A4B083B1A680F
:102CE00002EA01030BB1012000E00020704700F070
:102CF000805119B10449091F086002E001490839EF
:102D000048607047080002400804024010B56FF0A8
:102D10000400FDF71AFD2E4800682E49B0FBF1F0C3
:102D20002D4908700846007800EB4001C1EBC01047
:102D30004FF6FF7101EAC0002849088010BD014626
:102D4000254A12784A434FF0E0235A6100229A61E3
:102D50001A46126942F001021A6100BF4FF0E022E8
:102D6000106900F001021AB100F48032002AF5D097
:102D70004FF0E022126922F001024FF0E0231A61C5
:102D800000229A6170470146144A12884A434FF064
:102D9000E0235A6100229A611A46126942F0010248
:102DA0001A6100BF4FF0E022106900F001021AB171
:102DB00000F48032002AF5D04FF0E022126922F0B0
:102DC00001024FF0E0231A6100229A61704700006F
:102DD0002400002000127A004C0000204E00002049
:102DE00010B54FF4A060FDF761FC10BD014600BFB7
:102DF000704700BF494A128802F04002002AF9D009
:102E0000C2B2464B1B1D1A80704710B586B00446EF
:102E1000012144F20400FEF7FBF94FF40070ADF815
:102E2000140003208DF8160018208DF8170005A94E
:102E30003B48FDF731FF4FF48060ADF814000420EB
:102E40008DF8170005A93648FDF726FF25208DF8D7
:102E5000000003208DF801008DF8020001208DF89C
:102E600003006846FDF727FC01940020ADF8080038
:102E7000ADF80A00ADF80C00ADF810000C20ADF86C
:102E80000E0001A92548FFF778F9012240F22551EB
:102E90002248FFF70AFA01212048FFF7FAF906B0A5
:102EA00010BD10B540F225511C48FFF7E3FA10B3EE
:102EB0001A48FFF75FFAC4B21A48008800F40040CD
:102EC000C8B91848008800F4804060B10A2C03D0CB
:102ED00000201449088020E01248008840F4004097
:102EE0001049088019E00D2C06D10E48008840F4E6
:102EF00080400C49088010E00A480088C0F30D00AB
:102F000009490C5407480088401C064908800846B7
:102F10000088C72801DD0020088010BD003801406E
:102F20000008014054000020C80400207FB5054679
:102F30000C4601210420FEF778F9ADF80850ADF8F1
:102F400004400020ADF80A00ADF8060001A93D4894
:102F5000FEF796FA012211463A48FEF708FE1E20B7
:102F60008DF8000000208DF8010003208DF802008C
:102F700001208DF803006846FDF79DFB01213148D3
:102F8000FEF7DAFD7FBD10B501212E48FFF79DF851
:102F900018B101212B48FFF7A9F82B4800882B49CD
:102FA0004860084600F00EF900F561602849088085
:102FB00010BD30B589B004460D4601210220FEF750
:102FC00034F901210420FEF723F94020ADF8200058
:102FD00018208DF8230003208DF8220008A91D4831
:102FE000FDF75AFEADF81840ADF814500020ADF8CA
:102FF0001A00ADF8160005A915483438FEF740FA56
:103000007020ADF804000120ADF806000020ADF8F6
:103010000C0001A90E483438FEF76FFA08210C485D
:103020003438FEF7B9FE204604EBD071C1F34F01EE
:10303000074A1180012106483438FEF77DFD09B0AA
:1030400030BD00000008004056000020B005002000
:10305000340400400008014000B591B00121084649
:10306000FEF7C9F801214FF40170FEF7D1F80620F0
:10307000ADF82C0000208DF82F000BA93C48FDF77F
:103080000BFE3C48FFF718FD3B4800903B48019081
:1030900039480090394801900020029002200390A6
:1030A000002004908020059040000690800007904A
:1030B000202008900002099000200A9069462D48BF
:1030C000FFF79CFD01212B48FFF7C3FD2A484C3830
:1030D000FDF75AFB00200C9001208DF834008DF88C
:1030E00035004FF460200E9000200F9002208DF8E4
:1030F00040000CA920484C38FDF76DFB4FF44040D0
:10310000FDF7EAFF0523012211461B484C38FDF765
:10311000FAFB05230222114617484C38FDF7F3FB52
:10312000012115484C38FDF78DFB012112484C3820
:10313000FDF77DFB10484C38FDF79BFB00BF0E48A8
:103140004C38FDF79BFB0028F9D10B484C38FDF7B4
:103150009FFB00BF08484C38FDF79FFB0028F9D1C2
:10316000012105484C38FDF7A2FB012011B000BD3C
:1031700000080140080002404C2401405600002095
:1031800000205049086048608860C8604E48006868
:1031900008614E48006848614D4800688861002019
:1031A000C8614C49086048608860C8604A48006847
:1031B00008614A4800684861494800688861002001
:1031C000C86170472DE9FC5F82464FF0000B45480F
:1031D0004088A0F50060002803DD01204249086016
:1031E00003E04FF0FF30404908603F4ADAF804102E
:1031F000126801FB02F003F096F906460F46DAF872
:10320000000003F090F94FF06632384BCDE9000131
:1032100002F0D4FF804632463B4603F0EFF9044605
:1032200003F024F983460222DAF8081002FB11B1F8
:10323000DAF80C20881803F049FB0746DAF8181072
:1032400003F05CFB0546584603F040FB8146DAF884
:10325000141003F053FB0746DAF80810ABEB01003B
:1032600003F034FB8146DAF8101003F047FB804688
:10327000394603F0ADFA0646294603F0A9FA04469A
:1032800003F008FBDAF81C100844CAF81C00DAF84E
:103290000800CAF80C00CAF808B0DAF81C00B0F54B
:1032A000487F04DB4FF44870CAF81C0006E0DAF8E7
:1032B0001C00002802DC0020CAF81C00DAF81C0000
:1032C000BDE8FC9F900500200000002004000020C5
:1032D00008000020B00500200C0000201000002095
:1032E00014000020560000205C0000206666FA3FB3
:1032F00008B501213820FDF78BFF6020ADF80000F4
:1033000048208DF8030069466E48FDF7C5FC4FF470
:10331000E050ADF8000048208DF8030069466A4887
:10332000FDF7BAFC0420ADF8000048208DF803003A
:1033300069466648FDF7B0FC08BD10B5044614B1F7
:103340000120634908706348006840F654318842A0
:1033500002DD08465F4908605D480078002877D0A4
:103360004FF480615848FDF72AFD88B14FF40061A1
:103370005548FDF724FD58B14FF480515248FDF7F0
:103380001EFD28B104215148FDF719FD012876D111
:10339000C820FFF7F8FC00204D4908704FF4806109
:1033A0004948FDF70CFD60B94B48007818B9012079
:1033B0004A49088084E04748006848304549086029
:1033C0007EE04FF400614048FDF7F9FC60B94248E7
:1033D000007818B902204149088071E03D48006832
:1033E00024303C4908606BE04FF480513648FDF7CB
:1033F000E6FC60B93848007818B9032037490880DE
:103400005EE03448006824383249086058E00421FE
:103410002E48FDF7D4FC60B92F48007818B9042075
:103420002E4908804CE02B4800684838294908603C
:1034300046E020212348FDF7C2FC90B926480078D9
:1034400038B901202649088000202449088037E047
:1034500015E0204800682349086000201D490860E5
:103460002EE040211748FDF7AAFC48BB1A48007817
:1034700008B9012000E000201749087020E04FF44F
:1034800080611148FDF79BFC012819D1C1020E484B
:10349000FDF795FC012813D101030B48FDF78FFCC4
:1034A00001280DD104210948FDF789FC012807D125
:1034B00040210448FDF783FC012801D1044908702C
:1034C00010BD0000000C014000100140001401403C
:1034D00069000020600000206800002064000020D7
:1034E00066000020B005002008B501210420FDF78A
:1034F0008FFE4FF4F850ADF8000010208DF8030057
:1035000003208DF802006946FE48FDF7C5FB08BDA3
:1035100010B502464FF48053FA4C1434236001294D
:1035200003D18B02241F236004E04FF48063F54C29
:1035300014342360002018E04FF48073F14C1434ED
:1035400023608023034113401BB16315241F2360B4
:1035500004E04FF40073EB4C143423604FF4807399
:10356000E84C10342360431CD8B20828E4DB4FF445
:103570008073E44C143423601B01241F236010BDAE
:1035800030B504460D46542C00DB0024062D00DB2C
:10359000002545F040000021FFF7BAFF44F080000D
:1035A0000021FFF7B5FF30BD10B500210846FFF739
:1035B000E7FF002405E001210020FFF7A9FF601CC0
:1035C00084B2B4F5FC7FF6DB10BD10B5FFF78CFFBD
:1035D0004FF48050CB4914310860401008600A2035
:1035E000FFF7D1FB4FF40060C6491031086000219D
:1035F0002120FFF78DFF0021C620FFF789FF002162
:103600000620FFF785FF00211320FFF781FF00212F
:103610002020FFF77DFF00210C20FFF779FFFFF747
:10362000C3FF10BD30B5054600240CE0A5F1200114
:1036300001EB4101B44A02EB4101085D0121FFF7B2
:1036400067FF601CC4B2062CF0DB30BD70B50546C8
:103650000E4614460D2C00DD002404EB44014906FF
:10366000080E3146FFF78CFF2846FFF7DBFF70BDE1
:1036700010B5044603E014F8010BFFF7D3FF2078E0
:103680000028F8D110BD70B505460E4614460D2C25
:1036900000DD002404EB44014906080E3146FFF723
:1036A0006FFF2846FFF7E4FF70BD30B505460024E4
:1036B00005E0285D0121FFF72BFF601CC4B2062C3A
:1036C000F7DB30BD70B505460E4614463146204640
:1036D000FFF756FF2846FFF7E8FF70BD30B50546F7
:1036E000002405E0285D0121FFF712FF601CC4B231
:1036F0000A2CF7DB30BD70B506460D4614464A2C41
:1037000002DD0024681CC5B229462046FFF738FFB9
:103710003046FFF7E3FF70BDF0B505460E4617468D
:103720007006010E3846FFF72BFF00240AE0A5F1D2
:103730002001764A02EB0111085D0121FFF7E8FE46
:10374000601CC4B2082CF2DB012000EB4600C1B2C1
:103750003846FFF715FF08240AE0A5F120016B4A5F
:1037600002EB0111085D0121FFF7D2FE601CC4B21B
:10377000102CF2DBF0BDF0B504460F4615460026CE
:1037800011E005EBC6004C2803DD00250026781C5F
:10379000C7B205EBC601CAB220783946FFF7BCFFB5
:1037A000641C701CC6B220780028EAD1F0BDF0B5C8
:1037B00005460E4617467006010E3846FFF7E0FE36
:1037C000002405E0285D0121FFF7A2FE601CC4B2C1
:1037D000102CF7DB012000EB4600C1B23846FFF7A2
:1037E000CFFE102405E0285D0121FFF791FE601C4B
:1037F000C4B2202CF7DBF0BD2DE9F04306460F469E
:10380000154698464FF00009002415E005EB04101A
:10381000442803DD0025A946781CC7B205EB091131
:10382000CAB206EB44103946FFF7C1FF09F10100A7
:1038300000F0FF09601CC4B24445E7DBBDE8F0833B
:1038400030B50546002405E0285D0121FFF760FE44
:10385000601C84B2B4F5FC7FF6DB30BD2DE9F04787
:103860000746884691461D46DDF820A04FEAEA0A41
:10387000002413E009EB0400C1B24046FFF780FECC
:10388000002607E004FB0561785C0121FFF740FE9C
:10389000701CC6B2AE42F5DB601CC4B25445E9DB15
:1038A000BDE8F0872DE9FC438046894615461E4653
:1038B00000240020009001900A20B5FBF0F100FBED
:1038C00011508DF800000A20B5FBF0F00A21B0FB82
:1038D000F1F201FB12008DF801006420B5FBF0F05D
:1038E000B0FBF1F201FB12008DF802004FF47A7088
:1038F000B5FBF0F0B0FBF1F201FB12008DF8030014
:1039000006E00000000801407E6B00089C6F000884
:1039100042F21070B5FBF0F0B0FBF1F201FB1200C7
:103920008DF8040000BF07E01DF804001030C0B29D
:103930000DF80400601CC4B2052CF5DB34461CE015
:10394000311B01EB410108EB4101C8B24946FFF7C9
:1039500017FE00270DE0611E1DF8011001EB41016B
:10396000FC4A02EB4101C85D0121FFF7D1FD781C43
:10397000C7B2062FEFDB601EC4B2002CE0DCBDE84E
:10398000FC830146802902DB4842C0B270470846EA
:10399000FCE702780B7803700A707047302900DB6F
:1039A0000021542800DB0020EB4A51701070704752
:1039B00030B500210846FFF7E3FD002410E00025A4
:1039C0000AE004EB4401E54A02EB0111485D0121E4
:1039D000FFF79EFD681C85B2542DF2DB601C84B29B
:1039E000062CECDB30BD2DE9FC4F05460E4691461A
:1039F0009A464FEAE60BA84606EB0A00401EC0F3C3
:103A0000C700019005EB0900401EC0B200905C4663
:103A100015E021464046FFF7B3FD47460AE004EBB8
:103A20004401CE4A02EB0111C85D0121FFF770FD90
:103A3000781CC7B200988742F1DD601CC4B20198BF
:103A40008442E6DDBDE8FC8F70B505460E46314682
:103A50002846FFF7A3FFC0484078C310BE49487806
:103A6000C11700EB5171C910A0EBC101CCB203EB3F
:103A70004300BA4901EB0010B7490978405C0121C5
:103A8000A140884303EB4301B44A02EB0111B24A5F
:103A900012788854B4B1581C00EB4000AF4901EBD8
:103AA0000010AD490978405CC4F10802FF211141C2
:103AB0008843591C01EB4101A84A02EB0111A64AB7
:103AC0001278885470BD30B50146A34B5B78D8108E
:103AD000A14C6378DC1703EB5474E410A3EBC4042B
:103AE000E2B200EB40039D4C04EB03139A4C2478A4
:103AF0001B5D01FA02F4234300EB4004974D05EBF4
:103B00000414954D2D786355B2B1431C03EB430368
:103B1000924C04EB0313904C24781B5DC2F1080413
:103B200041FA04F42343441C04EB44048B4D05EB9D
:103B30000414894D2D786355874B1B78532B0DDB6F
:103B40000023854C237023465B780833637023463B
:103B50005B78302B07DB0023637004E07E4B1B781F
:103B60005B1C7D4C237030BD30B50022002111E07C
:103B7000002008E0002301EB4104784D05EB04141C
:103B80002354431CD8B25428F4DB02F10803DAB200
:103B90004B1CD9B20629EBDB30BD00B5FFF7E4FFC3
:103BA000FFF706FF00BD2DE9F04304460D4616461B
:103BB0001F46E819C7B23019C6B2A9460FE0A046A1
:103BC00007E049464046FFF73FFF08F1010000F0DB
:103BD000FF08B045F5DB09F1010000F0FF09B94528
:103BE000EDDBBDE8F083F0B504460D4616461F46F2
:103BF0003B46324629462046FFF7D5FF3B46324634
:103C000029462046FFF7EFFEF0BD30B50546524885
:103C100000785349087050484078487000240BE001
:103C2000A5F1200101EB41014A4A02EB4101085D87
:103C3000FFF749FF601CC4B2062CF1DB30BD10B5A4
:103C400004462046FFF7E1FF454A517810780823E3
:103C50000622FFF7C8FE10BD70B506460C46154695
:103C600029462046FFF79AFE3046FFF7CEFF70BD8B
:103C700070B504460D461646324629462046FFF7E3
:103C8000EBFF374A5178107808230622FFF7ABFE86
:103C900070BD30B50446002505E014F8010BFFF7B0
:103CA000B4FF681CC5B220780028F6D1284630BD84
:103CB000F0B506463046FFF7ECFF0446284800788A
:103CC00004EB4401C0EB4100801F542190FBF1F054
:103CD000801CC5B222484178681E082202FB1010E1
:103CE000C7B2E806030E542239460020FFF77BFED8
:103CF0002046F0BD70B506460C46154629462046BE
:103D0000FFF74CFE3046FFF7C4FF70BD2DE9F041D0
:103D100007460C4615462A4621463846FFF7EAFF75
:103D20000646C4F1540006EB4601C0EB4100401EBC
:103D3000542190FBF1F0801C00F0FF084FEAC860AE
:103D4000030E542229460020FFF74DFE3046BDE801
:103D5000F08100007E6B00086A000020D005002082
:103D60006C000020F0B505460F4616463146384631
:103D7000FFF714FE002409E0A5F12001F64A02EB4A
:103D80000111085DFFF79FFE601CC4B2082CF3DB35
:103D900006F10800C1B23846FFF700FE082409E02A
:103DA000A5F12001EC4A02EB0111085DFFF78BFE43
:103DB000601CC4B2102CF3DBF0BD70B506460C4697
:103DC00015462A4621463046FFF7CCFF102308222D
:103DD00029462046FFF707FE70BD2DE9F041044655
:103DE0000D46174600264FF0010816E005EBC60009
:103DF0004C2808DD0025002607F11000C7B208F1A5
:103E0000010000F0FF0805EBC602D1B220783A4667
:103E1000FFF7A8FF641C701CC6B220780028E5D10B
:103E20004046BDE8F081F0B507460C4615462A46E7
:103E300021463846FFF7D1FF0646701E102181400B
:103E4000CBB2542229462046FFF7CDFD3046F0BDC7
:103E5000F0B505460F46164631463846FFF79EFD3B
:103E6000002404E0285DFFF72EFE601CC4B2102C75
:103E7000F8DB06F10800C1B23846FFF78FFD1024C9
:103E800004E0285DFFF71FFE601CC4B2202CF8DBA5
:103E9000F0BD70B506460C4615462A46214630460A
:103EA000FFF7D6FF10231A4629462046FFF79BFD51
:103EB00070BD2DE9F04706460D46174698464FF06F
:103EC00000094FF0010A00241AE005EB0410442811
:103ED00008DD0025A94607F11000C7B20AF101006C
:103EE00000F0FF0A05EB0912D1B206EB44103A4686
:103EF000FFF7AEFF09F1010000F0FF09601CC4B23A
:103F00004445E2DB5046BDE8F0872DE9F041074625
:103F10000C461546984643462A4621463846FFF742
:103F2000C8FF0646701E10218140CBB2542229469C
:103F30002046FFF758FD3046BDE8F08170B5CB1044
:103F40000A46CC1701EB5474E410A1EBC40501241C
:103F5000AC4003EB4305814E06EB05152D5C2C436D
:103F600003EB430506EB05152C5470BD30B5044634
:103F70000D4629462046FFF7E1FF08230122294686
:103F80002046FFF730FD30BD02468A4201DC104674
:103F900070470846FCE702468A4201D1002070477C
:103FA000914201DD0120FAE74FF0FF30F7E72DE9FC
:103FB000FF4F82B005460C469146A9EB0501C8B2F9
:103FC000FFF7DFFC01900599091BC8B2FFF7D9FC88
:103FD00000909DF800009DF80410884205DD012640
:103FE000694601A8FFF7D5FC00E0002649462846AF
:103FF000FFF7D1FF834620460599FFF7CCFF074620
:104000009DF80400C0F101019DF8000088400FFAFE
:1040100080F84FF0000A24E021462846FFF78EFF83
:10402000B8F1000F0CDB1EB105EB0B00C5B201E0CF
:10403000E019C4B29DF80400A8EB40000FFA80F824
:1040400016B1E019C4B202E005EB0B00C5B29DF851
:10405000000008EB40000FFA80F80AF1010000F0C0
:10406000FF0A9DF804008245D6DD06B0BDE8F08F5A
:104070002DE9F04F07460C4615461E46E91BC8B20F
:10408000FFF77FFC401C00F0FF08311BC8B2FFF7B0
:1040900078FC401C00F0FF0929463846FFF774FF02
:1040A000824631462046FFF76FFF834633462A4655
:1040B00021463846FFF77BFF4B464246594650465D
:1040C000FFF791FCBDE8F08FF0B505460E460024E1
:1040D0000FE0671C05EB47077B78671C15F8172076
:1040E00005EB4407797815F81400FFF760FF601CB2
:1040F000C4B2B442EDDBF0BD30B504460D462946EE
:104100002046FFF7E1FFFFF753FC30BDF0B5044652
:104110000D4616461F46A019C2B22B462946204618
:10412000FFF745FFE919CBB2A119CAB2A119C8B26C
:104130002946FFF73CFFE819C3B22246294620462C
:10414000FFF735FFE819C3B2A019C2B2E819C1B22E
:104150002046FFF72CFFF0BD9C6F0008D005002023
:10416000F0B506460F4614461D462B4622463946F4
:104170003046FFF7CBFF681CC3B2601CC2B23946A1
:104180003046FFF730FCF0BD2DE9F04306460F4600
:104190009046002445460520A0EB880944E07A19A2
:1041A000D1B23219D0B2FFF7C9FE7A1BD1B232199F
:1041B000D0B2FFF7C3FE7A19D1B2321BD0B2FFF7EB
:1041C000BDFE7A1BD1B2321BD0B2FFF7B7FE3A194F
:1041D000D1B27219D0B2FFF7B1FE3A1BD1B2721947
:1041E000D0B2FFF7ABFE3A19D1B2721BD0B2FFF7D3
:1041F000A5FE3A1BD1B2721BD0B2FFF79FFE601C26
:10420000C4B2B9F1000F06DA0C2000EBC400484438
:104210000FFA80F908E0681EC5B2E000A0EBC50007
:10422000143048440FFA80F9AC42B8DDBDE8F083A1
:10423000F0B505460E461446224631462846FFF79D
:10424000A3FF012707EB4407FBB2012707EB440755
:10425000FAB2371BF9B22F1BF8B2FFF7C4FBF0BD5F
:104260002DE9F04F05460E4617469846DDF8249096
:104270004FF0000BA9F10100012101EBE00000F07B
:10428000FF09002417E007EBC400C1B23046FFF776
:1042900085FB4FF0000A0AE059464A1C1FFA82FBD0
:1042A000685CFFF710FC0AF1010000F0FF0AC2454C
:1042B000F2DB601CC4B24C45E5DBBDE8F08F2DE9B4
:1042C000F84180460C4615461E46079F33462A464F
:1042D000214640460097FFF7C3FF3B46324629463A
:1042E0002046FFF780FBBDE8F881000038B50024C8
:1042F0000AE0E1B204EB8402FE4B03EB4200002231
:10430000FFF7F9F9601C84B2062CF2DB00210D20C6
:10431000FFF736F9002409E004EB8402F5499631F1
:1043200001EB4200FFF7DAF9601C84B2072CF3DBE3
:1043300004230F220221F048FFF75EFA0422022133
:10434000EEA0FFF7A0F949F64040FEF71CFDFFF78D
:1043500024FCFFF722FCFFF727F949F64040FEF75F
:1043600012FDFFF71AFC30202D2300221146009089
:10437000E448FFF7A4FF06220421E3A0FFF783F936
:1043800049F64040FEF7FFFCFFF707FCFFF70CF98A
:1043900038BD10B5DF480088012805D1002203216F
:1043A000DDA0FFF770F904E000220321DEA0FFF793
:1043B0006AF910BD10B505210720FFF7E1F8CD48D7
:1043C000BE30FFF78BF9DC48FFF788F9DA48FFF7D2
:1043D00085F9C8489630FFF781F9D748FFF77EF98D
:1043E000D548FFF77BF9C348A030FFF777F90122E2
:1043F0000021D2A0FFF747F901221146D3A0FFF711
:1044000042F901220221D5A0FFF73DF90122032143
:10441000D6A0FFF738F900221146D8A0FFF733F9EC
:1044200000220521D5A0FFF72EF910BD10B5FFF72A
:10443000BBF805210720FFF7A3F8BF48A038FFF716
:104440004DF9BD48FFF74AF9BB48FFF747F9A948BE
:104450009630FFF743F9B848FFF740F9B648FFF741
:104460003DF9A448A030FFF739F901220021C4A08A
:10447000FFF709F901221146C5A0FFF704F901224F
:104480000221C7A0FFF7FFF801220321B7A0FFF721
:10449000FAF800221146B9A0FFF7F5F810BD10B5E3
:1044A000FFF782F805210720FFF76AF8A248A03835
:1044B000FFF714F9A048FFF711F99F48FFF70EF92D
:1044C0008C489630FFF70AF99B48FFF707F99A489E
:1044D000FFF704F98748A030FFF700F90122002117
:1044E000B3A0FFF7D0F801221146B5A0FFF7CBF833
:1044F00001220221B6A0FFF7C6F801220321B8A0CD
:10450000FFF7C1F810BD10B5B9480068A0B9002286
:1045100011469AA0FFF7B7F80022012196A0FFF7F5
:10452000B2F80022022194A0FFF7ADF80022032187
:1045300091A0FFF7A8F849E0AD480068012814D120
:10454000002211468CA0FFF79EF8002201218BA0CB
:10455000FFF799F80022022187A0FFF794F80022C4
:10456000032185A0FFF78FF830E0A14800680228FA
:1045700014D10022114680A0FFF785F80022012106
:104580007DA0FFF780F8002202217CA0FFF77BF8D6
:104590000022032178A0FFF776F817E0944800681E
:1045A000032813D10022114673A0FFF76CF80022F4
:1045B000012171A0FFF767F8002202216EA0FFF72A
:1045C00062F8002203216DA0FFF75DF810BD10B561
:1045D0008848006888B9FFF7EDFE0022052167A032
:1045E000FFF751F80522114663A0FFF74CF80A22A5
:1045F000052161A0FFF747F82AE07E4800680128FE
:1046000011D1FFF713FF002205215BA0FFF73BF854
:104610000522114659A0FFF736F80A22052156A0B7
:10462000FFF731F814E073480068022810D1FFF753
:1046300036FF0022052150A0FFF725F8052211467C
:104640004DA0FFF720F80A2205214CA0FFF71BF828
:1046500010BD2DE9F04168480088012810D10020E4
:104660006549088062480068401E61490860084644
:104670000068002801DA03200860FFF744FF13E018
:104680005D48008802280FD100205B490880584807
:104690000068401C5649086008460068032801DD90
:1046A00000200860FFF72FFF1A48008800281DD05F
:1046B000002018490880FEF777FF00BF4D480068CA
:1046C000002814D14A480068002811D111490880F7
:1046D00000BF0020FEF731FE0123062200214748DB
:1046E000FFF78AF84648028804238BE0C3E2FAE128
:1046F000EEE00000F98A0008DB9200084320442025
:1047000049204F00FC9C00082053746172742E2EC7
:1047100000000000660000204D656E752053746136
:1047200072742E2E2E000000506172616D20537441
:104730006172742E2E2E0000578C0008312E204FEF
:1047400070656E20204C6F6F70000000322E204389
:104750006C6F7365204C6F6F70000000332E20501B
:104760006172616D2052656164000000342E205238
:10477000657475726E202020200000003E0000004D
:10478000312E20436F6E74616374205573000000F6
:10479000322E2053797374656D20496E66000000D7
:1047A000332E2053797374656D20566572000000B6
:1047B00020202020595355202020202020000000B8
:1047C000202020204344494F2020202020000000AA
:1047D00020204B616C69204C696E757820000000C8
:1047E0002020323031362D362D3138202000000087
:1047F0007000002074000020640000205B96000818
:104800005600002000211C20FFF74CF80123042251
:104810001946F948FEF7F0FFF848428804230321BF
:104820001C20FFF73FF8012304220221F448FEF781
:10483000E3FFF4480088482190FBF1F4042322466A
:1048400005211C20FFF72EF8EF480068002811DA38
:104850000B220521EDA0FEF716FFEB480068404251
:10486000242190FBF1F40223224605214820FFF782
:1048700019F810E00B220521AFF20410FEF703FF38
:10488000E1480068242190FBF1F40223224605212F
:104890004820FFF707F83220FEF775FADC48008859
:1048A00000283FF416AF0020D9490880FEF77CFEAF
:1048B000022311220121D748FEF79EFF4FF47A60B0
:1048C000FEF761FAFEF770FEFFF774FDBDE8F081B8
:1048D000D148006801287DD10020CD49088000BF63
:1048E0000020FEF72AFD012306220021CB48FEF717
:1048F00083FFC2480288042300211C20FEF7D2FF58
:10490000012304221946BC48FEF776FFBB484288C3
:10491000042303211C20FEF7C5FF012304220221EA
:10492000B748FEF769FFB7480088482190FBF1F4CB
:104930000423224605211C20FEF7B4FFB24800687C
:10494000002819DA0B220521B0A0FEF79CFEAE4824
:104950000068404201F0E7FD05460022B04B01F03F
:104960002DFC074601F0B2FD044602232246052134
:104970004820FEF797FF10E00B220521AFF2082038
:10498000FEF781FEA0480068242190FBF1F4022389
:10499000224605214820FEF785FF4FF47A60FEF796
:1049A000F2F99B48008800289AD000209849088096
:1049B000FEF7FAFD0223112201219648FEF71CFFA3
:1049C0004FF47A60FEF7DFF9FEF7EEFDFFF7F2FC39
:1049D0007CE7FFE790480068022870D100208C49EE
:1049E000088000BF0020FEF7A8FC0123062200215A
:1049F0008C48FEF701FF8C480078642100FB01F22F
:104A0000032300211C20FEF74DFF8748C078642156
:104A100000FB01F2032300213E20FEF743FF0123A8
:104A2000042219468148FEF7E7FE7F48407864215A
:104A300000FB01F2032319461C20FEF733FF7A48DE
:104A40000079642100FB01F2032319463E20FEF7A2
:104A500029FF0123042202217548FEF7CDFE72488A
:104A60008078642100FB01F2032305211C20FEF75E
:104A700019FF6D484079642100FB01F203230521F1
:104A80003E20FEF70FFF6420FEF77DF960480088A6
:104A90000028A7D000205E490880FEF785FD02238C
:104AA000112201215B48FEF7A7FE4FF47A60FEF762
:104AB0006AF9FEF779FDFFF77DFC07E7FFE7564847
:104AC000006803287FF4FAAD022311220121514826
:104AD000FEF792FE4FF4C870FEF755F9FEF764FD3D
:104AE000FFF768FCF2E6534800680128EAD14A481B
:104AF000006840BB00204649088000BF0020FEF748
:104B00001CFC04230F2201214B48FEF775FE4FF4D5
:104B10001670FEF738F93E4800880028EED00020D5
:104B20003B490880FEF740FD02231122012139484C
:104B3000FEF762FE4FF47A60FEF725F9FEF734FDCA
:104B4000FFF738FCC2E634480068012828D100206D
:104B50002F49088000BF0020FEF7EFFB04230F223F
:104B600001213648FEF748FE4FF41670FEF70BF9A8
:104B7000274800880028EED0002025490880FEF74D
:104B800013FD0223112201212248FEF735FE4FF4C6
:104B90007A60FEF7F8F8FEF707FDFFF70BFC95E6E5
:104BA0001D480068022853D100201949088000BF21
:104BB0000020FEF7C2FB0122032121A0FEF763FDC6
:104BC0004FF41670FEF7DFF8114800880028EFD088
:104BD00000200F490880FEF7E7FC02231122012183
:104BE0000C48FEF709FE4FF47A60FEF7CCF8FEF7AA
:104BF000DBFCFFF7DFFB69E67B9600085600002030
:104C00009B96000834040040600000202D00000046
:104C1000660000209B950008700000205B9600084D
:104C200000803040BB9600081E000020DB96000884
:104C3000FB96000874000020DB920008DB9500085A
:104C400056657273696F6E20312E302000000000AF
:104C50002648006803287FF431AD02231122012188
:104C60002348FEF7C9FD6420FEF78DF8FEF79CFC93
:104C7000FFF7A0FB2AE600BF28E610B51D48008814
:104C8000032811D100201B4908801B480068401EE2
:104C90001949086008460068002801DA0220086007
:104CA000FEF782FCFFF793FC12480088042811D11C
:104CB00000201049088010480068401C0E49086018
:104CC00008460068022801DD00200860FEF76CFC41
:104CD000FFF77DFC10BD10B50020FEF72EFBFFF79F
:104CE000CCFFFFF7B6FC10BD70470000700000203D
:104CF0009B950008640000207400002000BFFEE7C0
:104D0000012804D0022803D0032803D101E001E0E8
:104D100000E000BF00BF00BFFEE71A4810B50078F2
:104D200048B101F077F830B1174900EB400001EBD2
:104D30004010603810BD154810BD154A10B51169F6
:104D40000346082900D3FEE7124800EB0110491C76
:104D50001860116100F042FC012010BD094909787A
:104D6000002905D000684FF6FF71DFF82CC000DF86
:104D7000704704490978002903D00068DFF81CC097
:104D800000DF7047A1000020381E0020BC21002059
:104D90007C000020D8200020C5560008ED550008F2
:104DA00000487047BC21002070477546FFF7F8FFA8
:104DB000AE4605006946534620F00700854618B008
:104DC00020B5FBF761FCBDE820404FF000064FF036
:104DD00000074FF000084FF0000B21F00701AC4630
:104DE000ACE8C009ACE8C009ACE8C009ACE8C0094F
:104DF0008D4670470446AFF300802046FBF7B4F9B8
:104E000070477047704770470000000010B5002AD7
:104E100006DA22F00042D21D22F00703102203E03E
:104E2000D21C22F003030C2213B19C188C4201D92E
:104E3000012010BD024401448360C0E90021C91A69
:104E4000D018884202D810600246F9E700201060AE
:104E500010BD000008480068C0010BD50748006875
:104E6000C00707D0054880380068002802DA0449E6
:104E70000120087070470000FCED00E0800E00E0AB
:104E8000C40000204FF06042D36F002BFCD0036BB6
:104E9000D367D36F002BFCD0C07840EA0120A2F882
:104EA0007C0070474FF06041CA6F002AFCD081F847
:104EB0007C00704770B50D46040003D012B920780D
:104EC000012801D0802070BD204600F087FA28B16B
:104ED0002946204600F02CF8002070BD812070BDCE
:104EE00010B504468089002821D0608904EB800039
:104EF000006908606078022805D10021204600F092
:104F000063FC00F051FC04F10C0000BFD0E85F1F0F
:104F1000491EC0E8521F002AF8D16089401C80B2A7
:104F20006081E189884201D100206081042010BDA8
:104F300010B500F049FCBDE8104000F035BC0000A1
:104F4000EFF3058008B182207047EFF31480C007AB
:104F500003D0DFF80CC000DF704700F063BF000033
:104F6000255E000888B0EFF3058010B1822008B0FC
:104F70007047EFF3148010F00301134806D00129A5
:104F80001BD0022911D0032919D113E008A981F3FC
:104F900009880078C0070BD05FF0020080F3148806
:104FA000BFF34F8FBFF36F8F09E00078C00706D1C2
:104FB0000320F3E70078C00701D0FF20D7E7DFF830
:104FC0000CC000DFD3E7000034A50008955E0008A0
:104FD0000EB50246EFF30580A0B1802002B121B1E9
:104FE0000090DDE9011203B000BD11780129F7D16D
:104FF00001A91046FFF774FF042801D00020EFE755
:105000001020EDE71046DFF808C000DFEBE70000F6
:10501000015F0008EFF305820AB100207047EFF34B
:105020001482064B02F001025B781A4303D0DFF8CA
:1050300010C000DF704700F081BF0000A00000201A
:105040003D5F0008DFF80CC000DFDFF80CC000DFB8
:10505000FEE70000AD5F0008C95F0008DFF804C08C
:1050600000DF704701600008094C4FF0FF3529460A
:105070002068FFF7ADFF02460846102AF7D1FFF778
:10508000EDFF0028F3D0024608469047EFE7000006
:1050900080000020074801684FF0E02041610021B6
:1050A0008161072101610448016841F07F4101608D
:1050B0004017704730A5000820ED00E0704750E829
:1050C000001F31B10B6840E80032002AF7D10846D2
:1050D0007047BFF32F8FFAE710B568B161B10B319C
:1050E00021F00302016844680B1A1B1B934205D28E
:1050F000084609680029F5D1002010BD3CB12118EF
:105100000368C1E90032016001F1080010BD42608E
:10511000083010BD70B50D46002812D04FF6FF7153
:10512000084C884204D222680146104600F078FB01
:1051300020684570044800F0D3F8BDE8704000F0E6
:1051400033BC70BDA80000208C2100200F4810B592
:105150000D4942680E480B680068934204D00A600B
:10516000CB88421E1A448A808A8880B282420AD141
:1051700000200860054800F0B3F80146BDE8104083
:10518000024800F071BB10BDBC0000208C21002043
:10519000B800002070B5194DE86800282CD0A88A06
:1051A000401EA882002621E0A06838B161684160F5
:1051B000606810B1A16881606660A6600F482146F2
:1051C000183800F051FBA08AA8826078042804D126
:1051D0000B49E08A09880844A08201206070E068D9
:1051E000E860E06808B10561E6602661A88A0028E9
:1051F00002D1EC68002CD7D170BD0000A4210020A2
:10520000B800002070B504000FD00D4DA178012624
:105210002868827891420CD900F042FB28684670D9
:105220002046BDE8704000F0BFBB064800F058F8CB
:10523000F7E766702146BDE87040024800F014BBF5
:10524000A80000208C21002010B50446008B0843E4
:1052500020836278618B062A18D0052A19D108426A
:1052600017D001EA0002628388432083204600F0C1
:1052700042FB01206070628B0821204600F037FB62
:105280002146BDE81040034800F0EEBA31EA0002C2
:10529000EAD010BD8C210020814202D342688A42AC
:1052A00001D80120704750E8002F0A6040E8001242
:1052B000002AF8D10020704768B161B10839002296
:1052C00002E00246006830B18842FAD12AB1006893
:1052D0001060002070470120704700214160F8E70E
:1052E0000146406842684A600B780022022B05D0D4
:1052F000012B03D0032B01D04260704743680BB1F0
:105300009960426082607047810700D0002070473A
:1053100070B5044600201546207001226270A1700D
:1053200084F824106060A060E06020612062A082A8
:10533000E0822083608384F82500E08C18B905485A
:10534000FFF7BDFEE06229462046BDE8704000F050
:105350001DB800000817002008B1082901D201205B
:1053600070470144091F002201600A604260104634
:105370007047000003480021016003490988C1808B
:1053800070470000BC00002024A5000810B5C28CA6
:10539000920803D10F4A1288C2F38D02C36A03EB4D
:1053A0008202530700D5121F403A4FF08073C2E9C2
:1053B0000E1300234FEA030442F823405B1C0E2B1C
:1053C000FAD3C369136282620163C06A0249016051
:1053D00010BD000020A50008A52E5AE2C1898089D1
:1053E000081A7047012202700022427082704260E7
:1053F0000281428110398281C1F38F01C1817047DE
:105400002DE9F041044640680E464FF0000804F1D3
:105410000C05E0B36078012701283DD0022813D0A5
:1054200003285BD10846FFF74AFE050056D0204608
:10543000FFF756FF0446294600F056FA67702046EB
:1054400000F059FA214620E02046FFF749FF0646C2
:10545000002100F049FA2189F06904EB810108611B
:10546000D5E85F0F401CC5E8510F0029F8D120890D
:10547000401C80B22081E189884201D1A4F80880D3
:105480007770304600F037FA3146184800E00CE0FB
:10549000BDE8F04100F0E8B92046FFF721FF0446DF
:1054A0003246102100F023FAC8E7A089E18988423A
:1054B00016D2208904EB8000C0F81060D5E85F0F99
:1054C000401CC5E8510F0029F8D12089401C80B24A
:1054D0002081E189884201D1A4F80880BDE8F081EB
:1054E000BDE8F0410320FFF70BBC00008C21002039
:1054F00070B50446808915460026B8B3608904EB70
:105500008000006908606089401C80B26081E18988
:10551000884200D16681606810B1607802280AD0A4
:1055200014F10C04D4E85F0F401EC4E8510F0029A9
:10553000F8D1002070BD2046FFF7D2FE05460021BD
:1055400000F0D2F92189E86904EB81010861208922
:10555000401C80B22081E189884200D12681284602
:1055600000F0C9F92846FFF74DFEE2E7FFE73DB13D
:105570000A48626801682AB1204600F075F908E01F
:10558000012070BD616001684E6000688460012088
:10559000607008212846FFF7BDFDF1E7A800002054
:1055A000411C13D00B4A4FF6FE7190420CD800EB11
:1055B0004002C2EBC0120848036803EBC202521E4D
:1055C000B2FBF3F0884200D9084670474FF6FF70EF
:1055D0007047000000093D0040A50008032101704C
:1055E0000021418041608160C16070472DE9F04138
:1055F0000446408820B1314DA1682A68914202D00A
:10560000FF20BDE8F081401E0004000C608053D1F3
:105610002968086AA04209D1E068086208E0C26807
:10562000A24202D1E268C26002E010460028F6D130
:1056300091F824000A6A06E053681BB19B78834204
:1056400000D91846D268002AF6D18870DFF8708039
:105650006168012611B32046FFF742FE074600218C
:1056600000F042F9384600F046F96680A760386AD3
:10567000E0603C622968D8F804008A788078824229
:1056800001D3384616E00E4800F0EEF839460C48D3
:1056900000F0EAF8286846707E700AE0D8F8041036
:1056A0008A782968824207D9054800F0DDF8286821
:1056B00046700020FFF7A6FD0020A2E7A80000200A
:1056C0008C21002070B5184D0E460446418828688C
:1056D00039B1A168814209D16088401C60800020F6
:1056E00070BDA060016AE1600462F5E776B18A7876
:1056F0008078824203D28870A06800F0DBF860688E
:1057000030B12046296800F0AFF808E0012070BDF4
:105710002868606029680020486028688460092142
:105720003046FFF7F7FCF1E7A800002070B51B48F2
:10573000012102685170006800F0B2F8184D6C78D1
:1057400017E000BF05EBC40148680278E2B1012A06
:105750001FD000F0FDF8E878641C844200D10024DA
:105760000F48801CD0E84F1F491EC0E8421F002A86
:10577000F8D1A8780028E5D16C700A48FFF7B0FD91
:10578000BDE8704000F010B9098989B2FFF75CFDEF
:10579000E1E78968FFF734FEDDE70000A80000209C
:1057A000781D00208C2100200548017811B10121CD
:1057B0004170704703494FF0805008607047000007
:1057C000B000002004ED00E0F0B4144A941CD57839
:1057D0004FEA0206D4E84F3FAB4202D1BFF32F8F0E
:1057E0000EE05B1CC4E8473F002FF3D1D6E84F3FE3
:1057F0005C1CAC4200D10024C6E8474F002FF5D115
:10580000D4789C4205D902EBC302C2E90101F0BC85
:105810007047F0BC0220FFF773BA0000781D00202B
:10582000104A10B5D368ABB113469B8A03E08CB124
:105830002246A48A2344D4688B42F8D3C460D06043
:105840000261C46804B12061591A8182908A401AA9
:10585000908210BD0024C460D060C91A0261918298
:10586000848210BDA421002030B502780023022AD2
:1058700003D0012A01D0032A00D101238C7800E053
:105880001046426812B19578A542F9D24A6041604B
:105890001BB102B19160886030BD0020FBE70000C1
:1058A00003494A68426000228260486070470000F5
:1058B0008C21002010B5836804462BB9607801283C
:1058C0000ED1084B03E09B6818780028FBD02046D7
:1058D00000F026F82146BDE810401846FFF7C4BF87
:1058E00010BD00008C210020806A01627047806A30
:1058F000C0E90812704710B5016900290ED0C268CE
:10590000CA60C36800223BB18B8A848A23448B829D
:10591000C3681961C26000E08A82026110BD0000A4
:10592000816839B142684A604168002901D08068C5
:1059300088607047054906E04A68824202D14068A3
:105940004860704711460029F6D170478C2100202D
:1059500010B5416881B1FFF7C3FC0446FFF7CBFFE8
:105960000120607001462046FFF7BEFF2146BDE8DA
:1059700010400348FFF778BF4188491C418010BDA3
:105980008C21002006480068D0E90A10814203D328
:1059900000680449884202D00120FFF7B1B970477E
:1059A000A8000020A52E5AE2074902224860427052
:1059B000064A1278002A05D006C98A4202D0C07869
:1059C000FFF770BA70470000A8000020C400002054
:1059D00070B5FFF73FFA00200446204A204902E054
:1059E00042F82040401C0B889842F9D31D483422CD
:1059F00001881D48FFF70AFA1C48008880B240F071
:105A000000421B4801681B48FFF700FA1A480822A9
:105A100001881A480068FFF7F9F9194DFF20194A63
:105A2000E870EC8400212846FFF772FC1648042138
:105A30000170446015480170C46004618482144898
:105A40001549056002206870124804704470097896
:105A5000C170BDE87040FFF78DBC0000FC1D002048
:105A60001CA5000848A500089015002020A50008E6
:105A70004CA500080817002070A500088800002029
:105A800058210020FD4C00088C210020A42100207A
:105A9000A8000020781D002054A500081A4810B561
:105AA000016841F47F01016000684FF07F4101EA25
:105AB00000201549C0431439B0FA80F00968C0F1DC
:105AC0000800C1F30221814200DB481C0E49091F76
:105AD0000B686FF08072824063F317020A60FFF771
